{
  "contractName": "Notes",
  "abi": [
    {
      "inputs": [],
      "stateMutability": "nonpayable",
      "type": "constructor"
    },
    {
      "anonymous": false,
      "inputs": [
        {
          "indexed": false,
          "internalType": "address",
          "name": "owner",
          "type": "address"
        },
        {
          "indexed": false,
          "internalType": "uint256",
          "name": "tokenId",
          "type": "uint256"
        }
      ],
      "name": "Created",
      "type": "event"
    },
    {
      "inputs": [
        {
          "internalType": "uint256",
          "name": "",
          "type": "uint256"
        }
      ],
      "name": "tokenIdToNoteInfo",
      "outputs": [
        {
          "internalType": "string",
          "name": "title",
          "type": "string"
        },
        {
          "internalType": "string",
          "name": "content",
          "type": "string"
        }
      ],
      "stateMutability": "view",
      "type": "function"
    },
    {
      "inputs": [
        {
          "internalType": "address",
          "name": "",
          "type": "address"
        },
        {
          "internalType": "uint256",
          "name": "",
          "type": "uint256"
        }
      ],
      "name": "userToTokenIdListInfo",
      "outputs": [
        {
          "internalType": "uint256",
          "name": "",
          "type": "uint256"
        }
      ],
      "stateMutability": "view",
      "type": "function"
    },
    {
      "inputs": [],
      "name": "name",
      "outputs": [
        {
          "internalType": "string",
          "name": "",
          "type": "string"
        }
      ],
      "stateMutability": "view",
      "type": "function"
    },
    {
      "inputs": [],
      "name": "symbol",
      "outputs": [
        {
          "internalType": "string",
          "name": "",
          "type": "string"
        }
      ],
      "stateMutability": "view",
      "type": "function"
    },
    {
      "inputs": [
        {
          "internalType": "address",
          "name": "owner",
          "type": "address"
        }
      ],
      "name": "notesByOwner",
      "outputs": [
        {
          "components": [
            {
              "internalType": "string",
              "name": "title",
              "type": "string"
            },
            {
              "internalType": "string",
              "name": "content",
              "type": "string"
            }
          ],
          "internalType": "struct Notes.Note[]",
          "name": "",
          "type": "tuple[]"
        }
      ],
      "stateMutability": "view",
      "type": "function"
    },
    {
      "inputs": [
        {
          "internalType": "string",
          "name": "_title",
          "type": "string"
        },
        {
          "internalType": "string",
          "name": "_content",
          "type": "string"
        }
      ],
      "name": "createNote",
      "outputs": [],
      "stateMutability": "nonpayable",
      "type": "function"
    },
    {
      "inputs": [],
      "name": "totalSupply",
      "outputs": [
        {
          "internalType": "uint256",
          "name": "",
          "type": "uint256"
        }
      ],
      "stateMutability": "view",
      "type": "function"
    },
    {
      "inputs": [],
      "name": "tokenIds",
      "outputs": [
        {
          "internalType": "uint256[]",
          "name": "",
          "type": "uint256[]"
        }
      ],
      "stateMutability": "view",
      "type": "function"
    },
    {
      "inputs": [
        {
          "internalType": "address",
          "name": "owner",
          "type": "address"
        }
      ],
      "name": "balanceOf",
      "outputs": [
        {
          "internalType": "uint256",
          "name": "",
          "type": "uint256"
        }
      ],
      "stateMutability": "view",
      "type": "function"
    },
    {
      "inputs": [
        {
          "internalType": "uint256",
          "name": "tokenId",
          "type": "uint256"
        }
      ],
      "name": "ownerOf",
      "outputs": [
        {
          "internalType": "address",
          "name": "",
          "type": "address"
        }
      ],
      "stateMutability": "view",
      "type": "function"
    }
  ],
  "bytecode": "0x60806040523480156200001157600080fd5b506040518060400160405280600581526020017f4e6f746573000000000000000000000000000000000000000000000000000000815250600090805190602001906200005f929190620000b4565b506040518060400160405280600581526020017f4e4f54455300000000000000000000000000000000000000000000000000000081525060019080519060200190620000ad929190620000b4565b50620001c9565b828054620000c29062000193565b90600052602060002090601f016020900481019282620000e6576000855562000132565b82601f106200010157805160ff191683800117855562000132565b8280016001018555821562000132579182015b828111156200013157825182559160200191906001019062000114565b5b50905062000141919062000145565b5090565b5b808211156200016057600081600090555060010162000146565b5090565b7f4e487b7100000000000000000000000000000000000000000000000000000000600052602260045260246000fd5b60006002820490506001821680620001ac57607f821691505b60208210811415620001c357620001c262000164565b5b50919050565b6113d980620001d96000396000f3fe608060405234801561001057600080fd5b506004361061009e5760003560e01c8063714cff5611610066578063714cff561461015b578063827ff7da1461017957806395d89b41146101a9578063a43ff686146101c7578063f9a989f0146101f75761009e565b806306fdde03146100a357806318160ddd146100c15780632feaf817146100df5780636352211e146100fb57806370a082311461012b575b600080fd5b6100ab610228565b6040516100b89190610b9c565b60405180910390f35b6100c96102ba565b6040516100d69190610bd7565b60405180910390f35b6100f960048036038101906100f49190610d3b565b6102c7565b005b61011560048036038101906101109190610ddf565b6104b2565b6040516101229190610e4d565b60405180910390f35b61014560048036038101906101409190610e94565b6104f4565b6040516101529190610bd7565b60405180910390f35b6101636105ac565b6040516101709190610f7f565b60405180910390f35b610193600480360381019061018e9190610fa1565b610604565b6040516101a09190610bd7565b60405180910390f35b6101b1610635565b6040516101be9190610b9c565b60405180910390f35b6101e160048036038101906101dc9190610e94565b6106c7565b6040516101ee9190611131565b60405180910390f35b610211600480360381019061020c9190610ddf565b610912565b60405161021f929190611153565b60405180910390f35b606060008054610237906111b9565b80601f0160208091040260200160405190810160405280929190818152602001828054610263906111b9565b80156102b05780601f10610285576101008083540402835291602001916102b0565b820191906000526020600020905b81548152906001019060200180831161029357829003601f168201915b5050505050905090565b6000600280549050905090565b6000604051806040016040528084815260200183815250905060006002805490509050600281908060018154018082558091505060019003906000526020600020016000909190919091505581600560008381526020019081526020016000206000820151816000019080519060200190610343929190610a46565b506020820151816001019080519060200190610360929190610a46565b50905050600660003373ffffffffffffffffffffffffffffffffffffffff1673ffffffffffffffffffffffffffffffffffffffff1681526020019081526020016000208190806001815401808255809150506001900390600052602060002001600090919091909150556001600460003373ffffffffffffffffffffffffffffffffffffffff1673ffffffffffffffffffffffffffffffffffffffff168152602001908152602001600020600082825461041a919061121a565b92505081905550336003600083815260200190815260200160002060006101000a81548173ffffffffffffffffffffffffffffffffffffffff021916908373ffffffffffffffffffffffffffffffffffffffff1602179055507f0ce3610e89a4bb9ec9359763f99110ed52a4abaea0b62028a1637e242ca2768b33826040516104a4929190611270565b60405180910390a150505050565b6000806003600084815260200190815260200160002060009054906101000a900473ffffffffffffffffffffffffffffffffffffffff16905080915050919050565b60008073ffffffffffffffffffffffffffffffffffffffff168273ffffffffffffffffffffffffffffffffffffffff161415610565576040517f08c379a000000000000000000000000000000000000000000000000000000000815260040161055c9061130b565b60405180910390fd5b600460008373ffffffffffffffffffffffffffffffffffffffff1673ffffffffffffffffffffffffffffffffffffffff168152602001908152602001600020549050919050565b606060028054806020026020016040519081016040528092919081815260200182805480156105fa57602002820191906000526020600020905b8154815260200190600101908083116105e6575b5050505050905090565b6006602052816000526040600020818154811061062057600080fd5b90600052602060002001600091509150505481565b606060018054610644906111b9565b80601f0160208091040260200160405190810160405280929190818152602001828054610670906111b9565b80156106bd5780601f10610692576101008083540402835291602001916106bd565b820191906000526020600020905b8154815290600101906020018083116106a057829003601f168201915b5050505050905090565b606060006106d4836104f4565b905060008167ffffffffffffffff8111156106f2576106f1610c10565b5b60405190808252806020026020018201604052801561072b57816020015b610718610acc565b8152602001906001900390816107105790505b50905060005b828110156109075760056000600660008873ffffffffffffffffffffffffffffffffffffffff1673ffffffffffffffffffffffffffffffffffffffff168152602001908152602001600020838154811061078e5761078d61132b565b5b906000526020600020015481526020019081526020016000206040518060400160405290816000820180546107c2906111b9565b80601f01602080910402602001604051908101604052809291908181526020018280546107ee906111b9565b801561083b5780601f106108105761010080835404028352916020019161083b565b820191906000526020600020905b81548152906001019060200180831161081e57829003601f168201915b50505050508152602001600182018054610854906111b9565b80601f0160208091040260200160405190810160405280929190818152602001828054610880906111b9565b80156108cd5780601f106108a2576101008083540402835291602001916108cd565b820191906000526020600020905b8154815290600101906020018083116108b057829003601f168201915b5050505050815250508282815181106108e9576108e861132b565b5b602002602001018190525080806108ff9061135a565b915050610731565b508092505050919050565b6005602052806000526040600020600091509050806000018054610935906111b9565b80601f0160208091040260200160405190810160405280929190818152602001828054610961906111b9565b80156109ae5780601f10610983576101008083540402835291602001916109ae565b820191906000526020600020905b81548152906001019060200180831161099157829003601f168201915b5050505050908060010180546109c3906111b9565b80601f01602080910402602001604051908101604052809291908181526020018280546109ef906111b9565b8015610a3c5780601f10610a1157610100808354040283529160200191610a3c565b820191906000526020600020905b815481529060010190602001808311610a1f57829003601f168201915b5050505050905082565b828054610a52906111b9565b90600052602060002090601f016020900481019282610a745760008555610abb565b82601f10610a8d57805160ff1916838001178555610abb565b82800160010185558215610abb579182015b82811115610aba578251825591602001919060010190610a9f565b5b509050610ac89190610ae6565b5090565b604051806040016040528060608152602001606081525090565b5b80821115610aff576000816000905550600101610ae7565b5090565b600081519050919050565b600082825260208201905092915050565b60005b83811015610b3d578082015181840152602081019050610b22565b83811115610b4c576000848401525b50505050565b6000601f19601f8301169050919050565b6000610b6e82610b03565b610b788185610b0e565b9350610b88818560208601610b1f565b610b9181610b52565b840191505092915050565b60006020820190508181036000830152610bb68184610b63565b905092915050565b6000819050919050565b610bd181610bbe565b82525050565b6000602082019050610bec6000830184610bc8565b92915050565b6000604051905090565b600080fd5b600080fd5b600080fd5b600080fd5b7f4e487b7100000000000000000000000000000000000000000000000000000000600052604160045260246000fd5b610c4882610b52565b810181811067ffffffffffffffff82111715610c6757610c66610c10565b5b80604052505050565b6000610c7a610bf2565b9050610c868282610c3f565b919050565b600067ffffffffffffffff821115610ca657610ca5610c10565b5b610caf82610b52565b9050602081019050919050565b82818337600083830152505050565b6000610cde610cd984610c8b565b610c70565b905082815260208101848484011115610cfa57610cf9610c0b565b5b610d05848285610cbc565b509392505050565b600082601f830112610d2257610d21610c06565b5b8135610d32848260208601610ccb565b91505092915050565b60008060408385031215610d5257610d51610bfc565b5b600083013567ffffffffffffffff811115610d7057610d6f610c01565b5b610d7c85828601610d0d565b925050602083013567ffffffffffffffff811115610d9d57610d9c610c01565b5b610da985828601610d0d565b9150509250929050565b610dbc81610bbe565b8114610dc757600080fd5b50565b600081359050610dd981610db3565b92915050565b600060208284031215610df557610df4610bfc565b5b6000610e0384828501610dca565b91505092915050565b600073ffffffffffffffffffffffffffffffffffffffff82169050919050565b6000610e3782610e0c565b9050919050565b610e4781610e2c565b82525050565b6000602082019050610e626000830184610e3e565b92915050565b610e7181610e2c565b8114610e7c57600080fd5b50565b600081359050610e8e81610e68565b92915050565b600060208284031215610eaa57610ea9610bfc565b5b6000610eb884828501610e7f565b91505092915050565b600081519050919050565b600082825260208201905092915050565b6000819050602082019050919050565b610ef681610bbe565b82525050565b6000610f088383610eed565b60208301905092915050565b6000602082019050919050565b6000610f2c82610ec1565b610f368185610ecc565b9350610f4183610edd565b8060005b83811015610f72578151610f598882610efc565b9750610f6483610f14565b925050600181019050610f45565b5085935050505092915050565b60006020820190508181036000830152610f998184610f21565b905092915050565b60008060408385031215610fb857610fb7610bfc565b5b6000610fc685828601610e7f565b9250506020610fd785828601610dca565b9150509250929050565b600081519050919050565b600082825260208201905092915050565b6000819050602082019050919050565b600082825260208201905092915050565b600061102982610b03565b611033818561100d565b9350611043818560208601610b1f565b61104c81610b52565b840191505092915050565b60006040830160008301518482036000860152611074828261101e565b9150506020830151848203602086015261108e828261101e565b9150508091505092915050565b60006110a78383611057565b905092915050565b6000602082019050919050565b60006110c782610fe1565b6110d18185610fec565b9350836020820285016110e385610ffd565b8060005b8581101561111f5784840389528151611100858261109b565b945061110b836110af565b925060208a019950506001810190506110e7565b50829750879550505050505092915050565b6000602082019050818103600083015261114b81846110bc565b905092915050565b6000604082019050818103600083015261116d8185610b63565b905081810360208301526111818184610b63565b90509392505050565b7f4e487b7100000000000000000000000000000000000000000000000000000000600052602260045260246000fd5b600060028204905060018216806111d157607f821691505b602082108114156111e5576111e461118a565b5b50919050565b7f4e487b7100000000000000000000000000000000000000000000000000000000600052601160045260246000fd5b600061122582610bbe565b915061123083610bbe565b9250827fffffffffffffffffffffffffffffffffffffffffffffffffffffffffffffffff03821115611265576112646111eb565b5b828201905092915050565b60006040820190506112856000830185610e3e565b6112926020830184610bc8565b9392505050565b7f4e6f7465733a2062616c616e636520717565727920666f7220746865207a657260008201527f6f20616464726573730000000000000000000000000000000000000000000000602082015250565b60006112f5602983610b0e565b915061130082611299565b604082019050919050565b60006020820190508181036000830152611324816112e8565b9050919050565b7f4e487b7100000000000000000000000000000000000000000000000000000000600052603260045260246000fd5b600061136582610bbe565b91507fffffffffffffffffffffffffffffffffffffffffffffffffffffffffffffffff821415611398576113976111eb565b5b60018201905091905056fea264697066735822122064cdab92eb3aef33a34b649138fe3c7c55b281bdecd87f6ea021afaa2b9901a764736f6c634300080b0033",
  "immutableReferences": {},
  "source": "// SPDX-License-Identifier: MIT\npragma solidity >=0.8.0;\n\ncontract Notes {\n\t// Token name\n\tstring private _name;\n\n\t// Token symbol\n\tstring private _symbol;\n\n\tconstructor() {\n\t\t_name = \"Notes\";\n\t\t_symbol = \"NOTES\";\n\t}\n\n\tfunction name() public view virtual returns (string memory) {\n\t\t\treturn _name;\n\t}\n\n\tfunction symbol() public view virtual returns (string memory) {\n\t\t\treturn _symbol;\n\t}\n\n\tstruct Note {\n\t\tstring title;\n\t\tstring content;\n\t}\n\n\t// Token creation event\n\tevent Created(address owner, uint256 tokenId);\n\n\t// Array with all token ids, used for enumeration\n\tuint256[] private _allTokens;\n\n\t// Mapping from token ID to owner address\n\tmapping(uint256 => address) private _owners;\n\n\t// Mapping owner address to token count\n\tmapping(address => uint256) private _balances;\n\n\t// Mapping token id to token\n\tmapping(uint256 => Note) public tokenIdToNoteInfo;\n\n\t// Mapping owner address to token list\n\tmapping(address => uint256[]) public userToTokenIdListInfo;\n\n\tfunction notesByOwner(address owner) public view returns(Note[] memory) {\n\t\tuint256 userBalance = balanceOf(owner);\n\t\tNote[] memory userNotes = new Note[](userBalance);\n\t\tfor(uint256 i=0; i<userBalance; i++) {\n\t\t\tuserNotes[i] = tokenIdToNoteInfo[userToTokenIdListInfo[owner][i]];\n\t\t}\n\t\treturn userNotes;\n\t}\n\n\tfunction createNote(string memory _title, string memory _content) public {\n\t\tNote memory newNote = Note(_title, _content);\n\t\tuint256 tokenId = _allTokens.length;\n\t\t_allTokens.push(tokenId);\n\t\ttokenIdToNoteInfo[tokenId] = newNote;\n\t\tuserToTokenIdListInfo[msg.sender].push(tokenId);\n\t\t_balances[msg.sender] += 1;\n\t\t_owners[tokenId] = msg.sender;\n\n\t\temit Created(msg.sender, tokenId);\n\t}\n\n\tfunction totalSupply() public view returns (uint256) {\n\t\treturn _allTokens.length;\n\t}\n\n\tfunction tokenIds() public view returns (uint256[] memory) {\n\t\treturn _allTokens;\n\t}\n\n\tfunction balanceOf(address owner) public view virtual returns (uint256) {\n\t\trequire(owner != address(0), \"Notes: balance query for the zero address\");\n\t\treturn _balances[owner];\n\t}\n\n\tfunction ownerOf(uint256 tokenId) public view virtual returns (address) {\n\t\taddress owner = _owners[tokenId];\n\t\treturn owner;\n\t}\n}\n",
  "sourcePath": "/home/sergera/code/star-notary/contracts/Notes.sol",
  "compiler": {
    "name": "solc",
    "version": "0.8.11+commit.d7f03943.Emscripten.clang"
  },
  "schemaVersion": "3.4.4",
  "updatedAt": "2022-05-11T15:45:53.513Z",
  "devdoc": {
    "kind": "dev",
    "methods": {},
    "version": 1
  },
  "userdoc": {
    "kind": "user",
    "methods": {},
    "version": 1
  }
}